{
  "_format": "hh-sol-artifact-1",
  "contractName": "ExampleNFT",
  "sourceName": "contracts/ExampleNFT.sol",
  "abi": [
    {
      "inputs": [],
      "stateMutability": "nonpayable",
      "type": "constructor"
    },
    {
      "anonymous": false,
      "inputs": [
        {
          "indexed": true,
          "internalType": "address",
          "name": "owner",
          "type": "address"
        },
        {
          "indexed": true,
          "internalType": "address",
          "name": "approved",
          "type": "address"
        },
        {
          "indexed": true,
          "internalType": "uint256",
          "name": "tokenId",
          "type": "uint256"
        }
      ],
      "name": "Approval",
      "type": "event"
    },
    {
      "anonymous": false,
      "inputs": [
        {
          "indexed": true,
          "internalType": "address",
          "name": "owner",
          "type": "address"
        },
        {
          "indexed": true,
          "internalType": "address",
          "name": "operator",
          "type": "address"
        },
        {
          "indexed": false,
          "internalType": "bool",
          "name": "approved",
          "type": "bool"
        }
      ],
      "name": "ApprovalForAll",
      "type": "event"
    },
    {
      "anonymous": false,
      "inputs": [
        {
          "indexed": true,
          "internalType": "address",
          "name": "previousOwner",
          "type": "address"
        },
        {
          "indexed": true,
          "internalType": "address",
          "name": "newOwner",
          "type": "address"
        }
      ],
      "name": "OwnershipTransferred",
      "type": "event"
    },
    {
      "anonymous": false,
      "inputs": [
        {
          "indexed": true,
          "internalType": "address",
          "name": "from",
          "type": "address"
        },
        {
          "indexed": true,
          "internalType": "address",
          "name": "to",
          "type": "address"
        },
        {
          "indexed": true,
          "internalType": "uint256",
          "name": "tokenId",
          "type": "uint256"
        }
      ],
      "name": "Transfer",
      "type": "event"
    },
    {
      "stateMutability": "payable",
      "type": "fallback"
    },
    {
      "inputs": [],
      "name": "_price",
      "outputs": [
        {
          "internalType": "uint256",
          "name": "",
          "type": "uint256"
        }
      ],
      "stateMutability": "view",
      "type": "function"
    },
    {
      "inputs": [
        {
          "internalType": "address",
          "name": "to",
          "type": "address"
        },
        {
          "internalType": "uint256",
          "name": "tokenId",
          "type": "uint256"
        }
      ],
      "name": "approve",
      "outputs": [],
      "stateMutability": "nonpayable",
      "type": "function"
    },
    {
      "inputs": [
        {
          "internalType": "address",
          "name": "owner",
          "type": "address"
        }
      ],
      "name": "balanceOf",
      "outputs": [
        {
          "internalType": "uint256",
          "name": "",
          "type": "uint256"
        }
      ],
      "stateMutability": "view",
      "type": "function"
    },
    {
      "inputs": [
        {
          "internalType": "uint256",
          "name": "tokenId",
          "type": "uint256"
        }
      ],
      "name": "getApproved",
      "outputs": [
        {
          "internalType": "address",
          "name": "",
          "type": "address"
        }
      ],
      "stateMutability": "view",
      "type": "function"
    },
    {
      "inputs": [
        {
          "internalType": "address",
          "name": "owner",
          "type": "address"
        },
        {
          "internalType": "address",
          "name": "operator",
          "type": "address"
        }
      ],
      "name": "isApprovedForAll",
      "outputs": [
        {
          "internalType": "bool",
          "name": "",
          "type": "bool"
        }
      ],
      "stateMutability": "view",
      "type": "function"
    },
    {
      "inputs": [
        {
          "internalType": "address",
          "name": "recipient",
          "type": "address"
        },
        {
          "internalType": "string",
          "name": "tokenURI",
          "type": "string"
        }
      ],
      "name": "mintNFT",
      "outputs": [
        {
          "internalType": "uint256",
          "name": "",
          "type": "uint256"
        }
      ],
      "stateMutability": "payable",
      "type": "function"
    },
    {
      "inputs": [],
      "name": "name",
      "outputs": [
        {
          "internalType": "string",
          "name": "",
          "type": "string"
        }
      ],
      "stateMutability": "view",
      "type": "function"
    },
    {
      "inputs": [],
      "name": "owner",
      "outputs": [
        {
          "internalType": "address",
          "name": "",
          "type": "address"
        }
      ],
      "stateMutability": "view",
      "type": "function"
    },
    {
      "inputs": [
        {
          "internalType": "uint256",
          "name": "tokenId",
          "type": "uint256"
        }
      ],
      "name": "ownerOf",
      "outputs": [
        {
          "internalType": "address",
          "name": "",
          "type": "address"
        }
      ],
      "stateMutability": "view",
      "type": "function"
    },
    {
      "inputs": [],
      "name": "renounceOwnership",
      "outputs": [],
      "stateMutability": "nonpayable",
      "type": "function"
    },
    {
      "inputs": [
        {
          "internalType": "address",
          "name": "from",
          "type": "address"
        },
        {
          "internalType": "address",
          "name": "to",
          "type": "address"
        },
        {
          "internalType": "uint256",
          "name": "tokenId",
          "type": "uint256"
        }
      ],
      "name": "safeTransferFrom",
      "outputs": [],
      "stateMutability": "nonpayable",
      "type": "function"
    },
    {
      "inputs": [
        {
          "internalType": "address",
          "name": "from",
          "type": "address"
        },
        {
          "internalType": "address",
          "name": "to",
          "type": "address"
        },
        {
          "internalType": "uint256",
          "name": "tokenId",
          "type": "uint256"
        },
        {
          "internalType": "bytes",
          "name": "data",
          "type": "bytes"
        }
      ],
      "name": "safeTransferFrom",
      "outputs": [],
      "stateMutability": "nonpayable",
      "type": "function"
    },
    {
      "inputs": [
        {
          "internalType": "address",
          "name": "operator",
          "type": "address"
        },
        {
          "internalType": "bool",
          "name": "approved",
          "type": "bool"
        }
      ],
      "name": "setApprovalForAll",
      "outputs": [],
      "stateMutability": "nonpayable",
      "type": "function"
    },
    {
      "inputs": [
        {
          "internalType": "bytes4",
          "name": "interfaceId",
          "type": "bytes4"
        }
      ],
      "name": "supportsInterface",
      "outputs": [
        {
          "internalType": "bool",
          "name": "",
          "type": "bool"
        }
      ],
      "stateMutability": "view",
      "type": "function"
    },
    {
      "inputs": [],
      "name": "symbol",
      "outputs": [
        {
          "internalType": "string",
          "name": "",
          "type": "string"
        }
      ],
      "stateMutability": "view",
      "type": "function"
    },
    {
      "inputs": [
        {
          "internalType": "uint256",
          "name": "tokenId",
          "type": "uint256"
        }
      ],
      "name": "tokenURI",
      "outputs": [
        {
          "internalType": "string",
          "name": "",
          "type": "string"
        }
      ],
      "stateMutability": "view",
      "type": "function"
    },
    {
      "inputs": [
        {
          "internalType": "address",
          "name": "from",
          "type": "address"
        },
        {
          "internalType": "address",
          "name": "to",
          "type": "address"
        },
        {
          "internalType": "uint256",
          "name": "tokenId",
          "type": "uint256"
        }
      ],
      "name": "transferFrom",
      "outputs": [],
      "stateMutability": "nonpayable",
      "type": "function"
    },
    {
      "inputs": [
        {
          "internalType": "address",
          "name": "newOwner",
          "type": "address"
        }
      ],
      "name": "transferOwnership",
      "outputs": [],
      "stateMutability": "nonpayable",
      "type": "function"
    },
    {
      "inputs": [],
      "name": "withdraw",
      "outputs": [],
      "stateMutability": "payable",
      "type": "function"
    },
    {
      "stateMutability": "payable",
      "type": "receive"
    }
  ],
  "bytecode": "0x608060405266038d7ea4c680006009553480156200001c57600080fd5b50604080518082018252600481526304e4654560e41b6020808301918252835180850190945260058452640454e4654560dc1b9084015281519192916200006691600091620000f5565b5080516200007c906001906020840190620000f5565b50505062000099620000936200009f60201b60201c565b620000a3565b620001d8565b3390565b600780546001600160a01b038381166001600160a01b0319831681179093556040519116919082907f8be0079c531659141344cd1fd0a4f28419497f9722a3daafe3b4186f6b6457e090600090a35050565b82805462000103906200019b565b90600052602060002090601f01602090048101928262000127576000855562000172565b82601f106200014257805160ff191683800117855562000172565b8280016001018555821562000172579182015b828111156200017257825182559160200191906001019062000155565b506200018092915062000184565b5090565b5b8082111562000180576000815560010162000185565b600181811c90821680620001b057607f821691505b60208210811415620001d257634e487b7160e01b600052602260045260246000fd5b50919050565b61192f80620001e86000396000f3fe60806040526004361061010c5760003560e01c806370a082311161009a578063b88d4fde11610061578063b88d4fde146102d8578063c87b56dd146102f8578063e985e9c514610318578063eacabe1414610361578063f2fde38b1461037457005b806370a0823114610250578063715018a6146102705780638da5cb5b1461028557806395d89b41146102a3578063a22cb465146102b857005b8063235b6ea1116100de578063235b6ea1146101c457806323b872dd146101e85780633ccfd60b1461020857806342842e0e146102105780636352211e1461023057005b806301ffc9a71461011557806306fdde031461014a578063081812fc1461016c578063095ea7b3146101a457005b3661011357005b005b34801561012157600080fd5b5061013561013036600461143a565b610394565b60405190151581526020015b60405180910390f35b34801561015657600080fd5b5061015f6103e6565b60405161014191906114af565b34801561017857600080fd5b5061018c6101873660046114c2565b610478565b6040516001600160a01b039091168152602001610141565b3480156101b057600080fd5b506101136101bf3660046114f7565b61049f565b3480156101d057600080fd5b506101da60095481565b604051908152602001610141565b3480156101f457600080fd5b50610113610203366004611521565b6105ba565b6101136105eb565b34801561021c57600080fd5b5061011361022b366004611521565b6106a4565b34801561023c57600080fd5b5061018c61024b3660046114c2565b6106bf565b34801561025c57600080fd5b506101da61026b36600461155d565b61071f565b34801561027c57600080fd5b506101136107a5565b34801561029157600080fd5b506007546001600160a01b031661018c565b3480156102af57600080fd5b5061015f6107b9565b3480156102c457600080fd5b506101136102d3366004611578565b6107c8565b3480156102e457600080fd5b506101136102f3366004611640565b6107d7565b34801561030457600080fd5b5061015f6103133660046114c2565b61080f565b34801561032457600080fd5b506101356103333660046116bc565b6001600160a01b03918216600090815260056020908152604080832093909416825291909152205460ff1690565b6101da61036f3660046116ef565b610920565b34801561038057600080fd5b5061011361038f36600461155d565b6109aa565b60006001600160e01b031982166380ac58cd60e01b14806103c557506001600160e01b03198216635b5e139f60e01b145b806103e057506301ffc9a760e01b6001600160e01b03198316145b92915050565b6060600080546103f590611751565b80601f016020809104026020016040519081016040528092919081815260200182805461042190611751565b801561046e5780601f106104435761010080835404028352916020019161046e565b820191906000526020600020905b81548152906001019060200180831161045157829003601f168201915b5050505050905090565b600061048382610a23565b506000908152600460205260409020546001600160a01b031690565b60006104aa826106bf565b9050806001600160a01b0316836001600160a01b0316141561051d5760405162461bcd60e51b815260206004820152602160248201527f4552433732313a20617070726f76616c20746f2063757272656e74206f776e656044820152603960f91b60648201526084015b60405180910390fd5b336001600160a01b038216148061053957506105398133610333565b6105ab5760405162461bcd60e51b815260206004820152603d60248201527f4552433732313a20617070726f76652063616c6c6572206973206e6f7420746f60448201527f6b656e206f776e6572206f7220617070726f76656420666f7220616c6c0000006064820152608401610514565b6105b58383610a82565b505050565b6105c43382610af0565b6105e05760405162461bcd60e51b81526004016105149061178c565b6105b5838383610b6e565b6105f3610cd2565b60006106076007546001600160a01b031690565b60405190915047906000906001600160a01b0384169083908381818185875af1925050503d8060008114610657576040519150601f19603f3d011682016040523d82523d6000602084013e61065c565b606091505b50509050806105b55760405162461bcd60e51b81526020600482015260146024820152732330b4b632b2103a379039b2b7321022ba3432b960611b6044820152606401610514565b6105b5838383604051806020016040528060008152506107d7565b6000818152600260205260408120546001600160a01b0316806103e05760405162461bcd60e51b8152602060048201526018602482015277115490cdcc8c4e881a5b9d985b1a59081d1bdad95b88125160421b6044820152606401610514565b60006001600160a01b0382166107895760405162461bcd60e51b815260206004820152602960248201527f4552433732313a2061646472657373207a65726f206973206e6f7420612076616044820152683634b21037bbb732b960b91b6064820152608401610514565b506001600160a01b031660009081526003602052604090205490565b6107ad610cd2565b6107b76000610d2c565b565b6060600180546103f590611751565b6107d3338383610d7e565b5050565b6107e13383610af0565b6107fd5760405162461bcd60e51b81526004016105149061178c565b61080984848484610e4d565b50505050565b606061081a82610a23565b6000828152600660205260408120805461083390611751565b80601f016020809104026020016040519081016040528092919081815260200182805461085f90611751565b80156108ac5780601f10610881576101008083540402835291602001916108ac565b820191906000526020600020905b81548152906001019060200180831161088f57829003601f168201915b5050505050905060006108ca60408051602081019091526000815290565b90508051600014156108dd575092915050565b81511561090f5780826040516020016108f79291906117d9565b60405160208183030381529060405292505050919050565b61091884610e80565b949350505050565b60006009543410156109745760405162461bcd60e51b815260206004820152601960248201527f45746865722073656e74206973206e6f7420636f7272656374000000000000006044820152606401610514565b610982600880546001019055565b600061098d60085490565b90506109998482610ef3565b6109a3818461107e565b9392505050565b6109b2610cd2565b6001600160a01b038116610a175760405162461bcd60e51b815260206004820152602660248201527f4f776e61626c653a206e6577206f776e657220697320746865207a65726f206160448201526564647265737360d01b6064820152608401610514565b610a2081610d2c565b50565b6000818152600260205260409020546001600160a01b0316610a205760405162461bcd60e51b8152602060048201526018602482015277115490cdcc8c4e881a5b9d985b1a59081d1bdad95b88125160421b6044820152606401610514565b600081815260046020526040902080546001600160a01b0319166001600160a01b0384169081179091558190610ab7826106bf565b6001600160a01b03167f8c5be1e5ebec7d5bd14f71427d1e84f3dd0314c0f7b2291e5b200ac8c7c3b92560405160405180910390a45050565b600080610afc836106bf565b9050806001600160a01b0316846001600160a01b03161480610b4357506001600160a01b0380821660009081526005602090815260408083209388168352929052205460ff165b806109185750836001600160a01b0316610b5c84610478565b6001600160a01b031614949350505050565b826001600160a01b0316610b81826106bf565b6001600160a01b031614610ba75760405162461bcd60e51b815260040161051490611808565b6001600160a01b038216610c095760405162461bcd60e51b8152602060048201526024808201527f4552433732313a207472616e7366657220746f20746865207a65726f206164646044820152637265737360e01b6064820152608401610514565b826001600160a01b0316610c1c826106bf565b6001600160a01b031614610c425760405162461bcd60e51b815260040161051490611808565b600081815260046020908152604080832080546001600160a01b03199081169091556001600160a01b0387811680865260038552838620805460001901905590871680865283862080546001019055868652600290945282852080549092168417909155905184937fddf252ad1be2c89b69c2b068fc378daa952ba7f163c4a11628f55a4df523b3ef91a4505050565b6007546001600160a01b031633146107b75760405162461bcd60e51b815260206004820181905260248201527f4f776e61626c653a2063616c6c6572206973206e6f7420746865206f776e65726044820152606401610514565b600780546001600160a01b038381166001600160a01b0319831681179093556040519116919082907f8be0079c531659141344cd1fd0a4f28419497f9722a3daafe3b4186f6b6457e090600090a35050565b816001600160a01b0316836001600160a01b03161415610de05760405162461bcd60e51b815260206004820152601960248201527f4552433732313a20617070726f766520746f2063616c6c6572000000000000006044820152606401610514565b6001600160a01b03838116600081815260056020908152604080832094871680845294825291829020805460ff191686151590811790915591519182527f17307eab39ab6107e8899845ad3d59bd9653f200f220920489ca2b5937696c31910160405180910390a3505050565b610e58848484610b6e565b610e6484848484611118565b6108095760405162461bcd60e51b81526004016105149061184d565b6060610e8b82610a23565b6000610ea260408051602081019091526000815290565b90506000815111610ec257604051806020016040528060008152506109a3565b80610ecc84611216565b604051602001610edd9291906117d9565b6040516020818303038152906040529392505050565b6001600160a01b038216610f495760405162461bcd60e51b815260206004820181905260248201527f4552433732313a206d696e7420746f20746865207a65726f20616464726573736044820152606401610514565b6000818152600260205260409020546001600160a01b031615610fae5760405162461bcd60e51b815260206004820152601c60248201527f4552433732313a20746f6b656e20616c7265616479206d696e746564000000006044820152606401610514565b6000818152600260205260409020546001600160a01b0316156110135760405162461bcd60e51b815260206004820152601c60248201527f4552433732313a20746f6b656e20616c7265616479206d696e746564000000006044820152606401610514565b6001600160a01b038216600081815260036020908152604080832080546001019055848352600290915280822080546001600160a01b0319168417905551839291907fddf252ad1be2c89b69c2b068fc378daa952ba7f163c4a11628f55a4df523b3ef908290a45050565b6000828152600260205260409020546001600160a01b03166110f95760405162461bcd60e51b815260206004820152602e60248201527f45524337323155524953746f726167653a2055524920736574206f66206e6f6e60448201526d32bc34b9ba32b73a103a37b5b2b760911b6064820152608401610514565b600082815260066020908152604090912082516105b59284019061138b565b60006001600160a01b0384163b1561120b57604051630a85bd0160e11b81526001600160a01b0385169063150b7a029061115c90339089908890889060040161189f565b6020604051808303816000875af1925050508015611197575060408051601f3d908101601f19168201909252611194918101906118dc565b60015b6111f1573d8080156111c5576040519150601f19603f3d011682016040523d82523d6000602084013e6111ca565b606091505b5080516111e95760405162461bcd60e51b81526004016105149061184d565b805181602001fd5b6001600160e01b031916630a85bd0160e11b149050610918565b506001949350505050565b60606000611223836112b3565b600101905060008167ffffffffffffffff811115611243576112436115b4565b6040519080825280601f01601f19166020018201604052801561126d576020820181803683370190505b5090508181016020015b600019016f181899199a1a9b1b9c1cb0b131b232b360811b600a86061a8153600a85049450846112a6576112ab565b611277565b509392505050565b60008072184f03e93ff9f4daa797ed6e38ed64bf6a1f0160401b83106112f25772184f03e93ff9f4daa797ed6e38ed64bf6a1f0160401b830492506040015b6d04ee2d6d415b85acef8100000000831061131e576d04ee2d6d415b85acef8100000000830492506020015b662386f26fc10000831061133c57662386f26fc10000830492506010015b6305f5e1008310611354576305f5e100830492506008015b612710831061136857612710830492506004015b6064831061137a576064830492506002015b600a83106103e05760010192915050565b82805461139790611751565b90600052602060002090601f0160209004810192826113b957600085556113ff565b82601f106113d257805160ff19168380011785556113ff565b828001600101855582156113ff579182015b828111156113ff5782518255916020019190600101906113e4565b5061140b92915061140f565b5090565b5b8082111561140b5760008155600101611410565b6001600160e01b031981168114610a2057600080fd5b60006020828403121561144c57600080fd5b81356109a381611424565b60005b8381101561147257818101518382015260200161145a565b838111156108095750506000910152565b6000815180845261149b816020860160208601611457565b601f01601f19169290920160200192915050565b6020815260006109a36020830184611483565b6000602082840312156114d457600080fd5b5035919050565b80356001600160a01b03811681146114f257600080fd5b919050565b6000806040838503121561150a57600080fd5b611513836114db565b946020939093013593505050565b60008060006060848603121561153657600080fd5b61153f846114db565b925061154d602085016114db565b9150604084013590509250925092565b60006020828403121561156f57600080fd5b6109a3826114db565b6000806040838503121561158b57600080fd5b611594836114db565b9150602083013580151581146115a957600080fd5b809150509250929050565b634e487b7160e01b600052604160045260246000fd5b600067ffffffffffffffff808411156115e5576115e56115b4565b604051601f8501601f19908116603f0116810190828211818310171561160d5761160d6115b4565b8160405280935085815286868601111561162657600080fd5b858560208301376000602087830101525050509392505050565b6000806000806080858703121561165657600080fd5b61165f856114db565b935061166d602086016114db565b925060408501359150606085013567ffffffffffffffff81111561169057600080fd5b8501601f810187136116a157600080fd5b6116b0878235602084016115ca565b91505092959194509250565b600080604083850312156116cf57600080fd5b6116d8836114db565b91506116e6602084016114db565b90509250929050565b6000806040838503121561170257600080fd5b61170b836114db565b9150602083013567ffffffffffffffff81111561172757600080fd5b8301601f8101851361173857600080fd5b611747858235602084016115ca565b9150509250929050565b600181811c9082168061176557607f821691505b6020821081141561178657634e487b7160e01b600052602260045260246000fd5b50919050565b6020808252602d908201527f4552433732313a2063616c6c6572206973206e6f7420746f6b656e206f776e6560408201526c1c881bdc88185c1c1c9bdd9959609a1b606082015260800190565b600083516117eb818460208801611457565b8351908301906117ff818360208801611457565b01949350505050565b60208082526025908201527f4552433732313a207472616e736665722066726f6d20696e636f72726563742060408201526437bbb732b960d91b606082015260800190565b60208082526032908201527f4552433732313a207472616e7366657220746f206e6f6e20455243373231526560408201527131b2b4bb32b91034b6b83632b6b2b73a32b960711b606082015260800190565b6001600160a01b03858116825284166020820152604081018390526080606082018190526000906118d290830184611483565b9695505050505050565b6000602082840312156118ee57600080fd5b81516109a38161142456fea264697066735822122054d58c363be74c1ea2b3069da51668247992d1af42ad8d20caae2e35f9c0a46164736f6c634300080c0033",
  "linkReferences": {},
  "deployedLinkReferences": {}
}