{
  "_format": "hh-sol-artifact-1",
  "contractName": "UsdcNFT",
  "sourceName": "contracts/UsdcNFT.sol",
  "abi": [
    {
      "inputs": [
        {
          "internalType": "address",
          "name": "_tokenAddress",
          "type": "address"
        }
      ],
      "stateMutability": "nonpayable",
      "type": "constructor"
    },
    {
      "anonymous": false,
      "inputs": [
        {
          "indexed": true,
          "internalType": "address",
          "name": "owner",
          "type": "address"
        },
        {
          "indexed": true,
          "internalType": "address",
          "name": "approved",
          "type": "address"
        },
        {
          "indexed": true,
          "internalType": "uint256",
          "name": "tokenId",
          "type": "uint256"
        }
      ],
      "name": "Approval",
      "type": "event"
    },
    {
      "anonymous": false,
      "inputs": [
        {
          "indexed": true,
          "internalType": "address",
          "name": "owner",
          "type": "address"
        },
        {
          "indexed": true,
          "internalType": "address",
          "name": "operator",
          "type": "address"
        },
        {
          "indexed": false,
          "internalType": "bool",
          "name": "approved",
          "type": "bool"
        }
      ],
      "name": "ApprovalForAll",
      "type": "event"
    },
    {
      "anonymous": false,
      "inputs": [
        {
          "indexed": true,
          "internalType": "address",
          "name": "previousOwner",
          "type": "address"
        },
        {
          "indexed": true,
          "internalType": "address",
          "name": "newOwner",
          "type": "address"
        }
      ],
      "name": "OwnershipTransferred",
      "type": "event"
    },
    {
      "anonymous": false,
      "inputs": [
        {
          "indexed": true,
          "internalType": "address",
          "name": "from",
          "type": "address"
        },
        {
          "indexed": true,
          "internalType": "address",
          "name": "to",
          "type": "address"
        },
        {
          "indexed": true,
          "internalType": "uint256",
          "name": "tokenId",
          "type": "uint256"
        }
      ],
      "name": "Transfer",
      "type": "event"
    },
    {
      "stateMutability": "payable",
      "type": "fallback"
    },
    {
      "inputs": [
        {
          "internalType": "address",
          "name": "to",
          "type": "address"
        },
        {
          "internalType": "uint256",
          "name": "tokenId",
          "type": "uint256"
        }
      ],
      "name": "approve",
      "outputs": [],
      "stateMutability": "nonpayable",
      "type": "function"
    },
    {
      "inputs": [
        {
          "internalType": "address",
          "name": "owner",
          "type": "address"
        }
      ],
      "name": "balanceOf",
      "outputs": [
        {
          "internalType": "uint256",
          "name": "",
          "type": "uint256"
        }
      ],
      "stateMutability": "view",
      "type": "function"
    },
    {
      "inputs": [
        {
          "internalType": "uint256",
          "name": "tokenId",
          "type": "uint256"
        }
      ],
      "name": "getApproved",
      "outputs": [
        {
          "internalType": "address",
          "name": "",
          "type": "address"
        }
      ],
      "stateMutability": "view",
      "type": "function"
    },
    {
      "inputs": [
        {
          "internalType": "address",
          "name": "owner",
          "type": "address"
        },
        {
          "internalType": "address",
          "name": "operator",
          "type": "address"
        }
      ],
      "name": "isApprovedForAll",
      "outputs": [
        {
          "internalType": "bool",
          "name": "",
          "type": "bool"
        }
      ],
      "stateMutability": "view",
      "type": "function"
    },
    {
      "inputs": [
        {
          "internalType": "address",
          "name": "recipient",
          "type": "address"
        },
        {
          "internalType": "string",
          "name": "tokenURI",
          "type": "string"
        }
      ],
      "name": "mintNFT",
      "outputs": [
        {
          "internalType": "uint256",
          "name": "",
          "type": "uint256"
        }
      ],
      "stateMutability": "payable",
      "type": "function"
    },
    {
      "inputs": [],
      "name": "name",
      "outputs": [
        {
          "internalType": "string",
          "name": "",
          "type": "string"
        }
      ],
      "stateMutability": "view",
      "type": "function"
    },
    {
      "inputs": [],
      "name": "owner",
      "outputs": [
        {
          "internalType": "address",
          "name": "",
          "type": "address"
        }
      ],
      "stateMutability": "view",
      "type": "function"
    },
    {
      "inputs": [
        {
          "internalType": "uint256",
          "name": "tokenId",
          "type": "uint256"
        }
      ],
      "name": "ownerOf",
      "outputs": [
        {
          "internalType": "address",
          "name": "",
          "type": "address"
        }
      ],
      "stateMutability": "view",
      "type": "function"
    },
    {
      "inputs": [],
      "name": "rate",
      "outputs": [
        {
          "internalType": "uint256",
          "name": "",
          "type": "uint256"
        }
      ],
      "stateMutability": "view",
      "type": "function"
    },
    {
      "inputs": [],
      "name": "renounceOwnership",
      "outputs": [],
      "stateMutability": "nonpayable",
      "type": "function"
    },
    {
      "inputs": [
        {
          "internalType": "address",
          "name": "from",
          "type": "address"
        },
        {
          "internalType": "address",
          "name": "to",
          "type": "address"
        },
        {
          "internalType": "uint256",
          "name": "tokenId",
          "type": "uint256"
        }
      ],
      "name": "safeTransferFrom",
      "outputs": [],
      "stateMutability": "nonpayable",
      "type": "function"
    },
    {
      "inputs": [
        {
          "internalType": "address",
          "name": "from",
          "type": "address"
        },
        {
          "internalType": "address",
          "name": "to",
          "type": "address"
        },
        {
          "internalType": "uint256",
          "name": "tokenId",
          "type": "uint256"
        },
        {
          "internalType": "bytes",
          "name": "data",
          "type": "bytes"
        }
      ],
      "name": "safeTransferFrom",
      "outputs": [],
      "stateMutability": "nonpayable",
      "type": "function"
    },
    {
      "inputs": [
        {
          "internalType": "address",
          "name": "operator",
          "type": "address"
        },
        {
          "internalType": "bool",
          "name": "approved",
          "type": "bool"
        }
      ],
      "name": "setApprovalForAll",
      "outputs": [],
      "stateMutability": "nonpayable",
      "type": "function"
    },
    {
      "inputs": [
        {
          "internalType": "bytes4",
          "name": "interfaceId",
          "type": "bytes4"
        }
      ],
      "name": "supportsInterface",
      "outputs": [
        {
          "internalType": "bool",
          "name": "",
          "type": "bool"
        }
      ],
      "stateMutability": "view",
      "type": "function"
    },
    {
      "inputs": [],
      "name": "symbol",
      "outputs": [
        {
          "internalType": "string",
          "name": "",
          "type": "string"
        }
      ],
      "stateMutability": "view",
      "type": "function"
    },
    {
      "inputs": [],
      "name": "tokenAddress",
      "outputs": [
        {
          "internalType": "contract IERC20",
          "name": "",
          "type": "address"
        }
      ],
      "stateMutability": "view",
      "type": "function"
    },
    {
      "inputs": [
        {
          "internalType": "uint256",
          "name": "tokenId",
          "type": "uint256"
        }
      ],
      "name": "tokenURI",
      "outputs": [
        {
          "internalType": "string",
          "name": "",
          "type": "string"
        }
      ],
      "stateMutability": "view",
      "type": "function"
    },
    {
      "inputs": [
        {
          "internalType": "address",
          "name": "from",
          "type": "address"
        },
        {
          "internalType": "address",
          "name": "to",
          "type": "address"
        },
        {
          "internalType": "uint256",
          "name": "tokenId",
          "type": "uint256"
        }
      ],
      "name": "transferFrom",
      "outputs": [],
      "stateMutability": "nonpayable",
      "type": "function"
    },
    {
      "inputs": [
        {
          "internalType": "address",
          "name": "newOwner",
          "type": "address"
        }
      ],
      "name": "transferOwnership",
      "outputs": [],
      "stateMutability": "nonpayable",
      "type": "function"
    },
    {
      "inputs": [],
      "name": "withdrawToken",
      "outputs": [],
      "stateMutability": "nonpayable",
      "type": "function"
    },
    {
      "stateMutability": "payable",
      "type": "receive"
    }
  ],
  "bytecode": "0x6080604052600a80553480156200001557600080fd5b5060405162001c5b38038062001c5b8339810160408190526200003891620001d5565b6040805180820182526005815264135e53919560da1b6020808301918252835180850190945260038452624d544b60e81b90840152815191929162000080916000916200012f565b508051620000969060019060208401906200012f565b505050620000b3620000ad620000d960201b60201c565b620000dd565b600980546001600160a01b0319166001600160a01b039290921691909117905562000244565b3390565b600780546001600160a01b038381166001600160a01b0319831681179093556040519116919082907f8be0079c531659141344cd1fd0a4f28419497f9722a3daafe3b4186f6b6457e090600090a35050565b8280546200013d9062000207565b90600052602060002090601f016020900481019282620001615760008555620001ac565b82601f106200017c57805160ff1916838001178555620001ac565b82800160010185558215620001ac579182015b82811115620001ac5782518255916020019190600101906200018f565b50620001ba929150620001be565b5090565b5b80821115620001ba5760008155600101620001bf565b600060208284031215620001e857600080fd5b81516001600160a01b03811681146200020057600080fd5b9392505050565b600181811c908216806200021c57607f821691505b602082108114156200023e57634e487b7160e01b600052602260045260246000fd5b50919050565b611a0780620002546000396000f3fe6080604052600436106101175760003560e01c80638da5cb5b1161009a578063c87b56dd11610061578063c87b56dd1461031b578063ca628c781461033b578063e985e9c514610350578063eacabe1414610399578063f2fde38b146103ac57005b80638da5cb5b1461028857806395d89b41146102a65780639d76ea58146102bb578063a22cb465146102db578063b88d4fde146102fb57005b80632c4e722e116100de5780632c4e722e146101ef57806342842e0e146102135780636352211e1461023357806370a0823114610253578063715018a61461027357005b806301ffc9a71461012057806306fdde0314610155578063081812fc14610177578063095ea7b3146101af57806323b872dd146101cf57005b3661011e57005b005b34801561012c57600080fd5b5061014061013b3660046114d3565b6103cc565b60405190151581526020015b60405180910390f35b34801561016157600080fd5b5061016a61041e565b60405161014c9190611548565b34801561018357600080fd5b5061019761019236600461155b565b6104b0565b6040516001600160a01b03909116815260200161014c565b3480156101bb57600080fd5b5061011e6101ca366004611590565b6104d7565b3480156101db57600080fd5b5061011e6101ea3660046115ba565b6105f2565b3480156101fb57600080fd5b50610205600a5481565b60405190815260200161014c565b34801561021f57600080fd5b5061011e61022e3660046115ba565b610623565b34801561023f57600080fd5b5061019761024e36600461155b565b61063e565b34801561025f57600080fd5b5061020561026e3660046115f6565b61069e565b34801561027f57600080fd5b5061011e610724565b34801561029457600080fd5b506007546001600160a01b0316610197565b3480156102b257600080fd5b5061016a610738565b3480156102c757600080fd5b50600954610197906001600160a01b031681565b3480156102e757600080fd5b5061011e6102f636600461161f565b610747565b34801561030757600080fd5b5061011e6103163660046116e2565b610756565b34801561032757600080fd5b5061016a61033636600461155b565b61078e565b34801561034757600080fd5b5061011e61089f565b34801561035c57600080fd5b5061014061036b36600461175e565b6001600160a01b03918216600090815260056020908152604080832093909416825291909152205460ff1690565b6102056103a7366004611791565b61098f565b3480156103b857600080fd5b5061011e6103c73660046115f6565b610a46565b60006001600160e01b031982166380ac58cd60e01b14806103fd57506001600160e01b03198216635b5e139f60e01b145b8061041857506301ffc9a760e01b6001600160e01b03198316145b92915050565b60606000805461042d906117f3565b80601f0160208091040260200160405190810160405280929190818152602001828054610459906117f3565b80156104a65780601f1061047b576101008083540402835291602001916104a6565b820191906000526020600020905b81548152906001019060200180831161048957829003601f168201915b5050505050905090565b60006104bb82610abc565b506000908152600460205260409020546001600160a01b031690565b60006104e28261063e565b9050806001600160a01b0316836001600160a01b031614156105555760405162461bcd60e51b815260206004820152602160248201527f4552433732313a20617070726f76616c20746f2063757272656e74206f776e656044820152603960f91b60648201526084015b60405180910390fd5b336001600160a01b03821614806105715750610571813361036b565b6105e35760405162461bcd60e51b815260206004820152603d60248201527f4552433732313a20617070726f76652063616c6c6572206973206e6f7420746f60448201527f6b656e206f776e6572206f7220617070726f76656420666f7220616c6c000000606482015260840161054c565b6105ed8383610b1b565b505050565b6105fc3382610b89565b6106185760405162461bcd60e51b815260040161054c9061182e565b6105ed838383610c07565b6105ed83838360405180602001604052806000815250610756565b6000818152600260205260408120546001600160a01b0316806104185760405162461bcd60e51b8152602060048201526018602482015277115490cdcc8c4e881a5b9d985b1a59081d1bdad95b88125160421b604482015260640161054c565b60006001600160a01b0382166107085760405162461bcd60e51b815260206004820152602960248201527f4552433732313a2061646472657373207a65726f206973206e6f7420612076616044820152683634b21037bbb732b960b91b606482015260840161054c565b506001600160a01b031660009081526003602052604090205490565b61072c610d6b565b6107366000610dc5565b565b60606001805461042d906117f3565b610752338383610e17565b5050565b6107603383610b89565b61077c5760405162461bcd60e51b815260040161054c9061182e565b61078884848484610ee6565b50505050565b606061079982610abc565b600082815260066020526040812080546107b2906117f3565b80601f01602080910402602001604051908101604052809291908181526020018280546107de906117f3565b801561082b5780601f106108005761010080835404028352916020019161082b565b820191906000526020600020905b81548152906001019060200180831161080e57829003601f168201915b50505050509050600061084960408051602081019091526000815290565b905080516000141561085c575092915050565b81511561088e57808260405160200161087692919061187b565b60405160208183030381529060405292505050919050565b61089784610f19565b949350505050565b6108a7610d6b565b6009546040516370a0823160e01b81523060048201526001600160a01b039091169063a9059cbb90339083906370a0823190602401602060405180830381865afa1580156108f9573d6000803e3d6000fd5b505050506040513d601f19601f8201168201806040525081019061091d91906118aa565b6040516001600160e01b031960e085901b1681526001600160a01b03909216600483015260248201526044016020604051808303816000875af1158015610968573d6000803e3d6000fd5b505050506040513d601f19601f8201168201806040525081019061098c91906118c3565b50565b600954600a546040516323b872dd60e01b815233600482015230602482015260448101919091526000916001600160a01b0316906323b872dd906064016020604051808303816000875af11580156109eb573d6000803e3d6000fd5b505050506040513d601f19601f82011682018060405250810190610a0f91906118c3565b50610a1e600880546001019055565b6000610a2960085490565b9050610a358482610f8c565b610a3f8184611117565b9392505050565b610a4e610d6b565b6001600160a01b038116610ab35760405162461bcd60e51b815260206004820152602660248201527f4f776e61626c653a206e6577206f776e657220697320746865207a65726f206160448201526564647265737360d01b606482015260840161054c565b61098c81610dc5565b6000818152600260205260409020546001600160a01b031661098c5760405162461bcd60e51b8152602060048201526018602482015277115490cdcc8c4e881a5b9d985b1a59081d1bdad95b88125160421b604482015260640161054c565b600081815260046020526040902080546001600160a01b0319166001600160a01b0384169081179091558190610b508261063e565b6001600160a01b03167f8c5be1e5ebec7d5bd14f71427d1e84f3dd0314c0f7b2291e5b200ac8c7c3b92560405160405180910390a45050565b600080610b958361063e565b9050806001600160a01b0316846001600160a01b03161480610bdc57506001600160a01b0380821660009081526005602090815260408083209388168352929052205460ff165b806108975750836001600160a01b0316610bf5846104b0565b6001600160a01b031614949350505050565b826001600160a01b0316610c1a8261063e565b6001600160a01b031614610c405760405162461bcd60e51b815260040161054c906118e0565b6001600160a01b038216610ca25760405162461bcd60e51b8152602060048201526024808201527f4552433732313a207472616e7366657220746f20746865207a65726f206164646044820152637265737360e01b606482015260840161054c565b826001600160a01b0316610cb58261063e565b6001600160a01b031614610cdb5760405162461bcd60e51b815260040161054c906118e0565b600081815260046020908152604080832080546001600160a01b03199081169091556001600160a01b0387811680865260038552838620805460001901905590871680865283862080546001019055868652600290945282852080549092168417909155905184937fddf252ad1be2c89b69c2b068fc378daa952ba7f163c4a11628f55a4df523b3ef91a4505050565b6007546001600160a01b031633146107365760405162461bcd60e51b815260206004820181905260248201527f4f776e61626c653a2063616c6c6572206973206e6f7420746865206f776e6572604482015260640161054c565b600780546001600160a01b038381166001600160a01b0319831681179093556040519116919082907f8be0079c531659141344cd1fd0a4f28419497f9722a3daafe3b4186f6b6457e090600090a35050565b816001600160a01b0316836001600160a01b03161415610e795760405162461bcd60e51b815260206004820152601960248201527f4552433732313a20617070726f766520746f2063616c6c657200000000000000604482015260640161054c565b6001600160a01b03838116600081815260056020908152604080832094871680845294825291829020805460ff191686151590811790915591519182527f17307eab39ab6107e8899845ad3d59bd9653f200f220920489ca2b5937696c31910160405180910390a3505050565b610ef1848484610c07565b610efd848484846111b1565b6107885760405162461bcd60e51b815260040161054c90611925565b6060610f2482610abc565b6000610f3b60408051602081019091526000815290565b90506000815111610f5b5760405180602001604052806000815250610a3f565b80610f65846112af565b604051602001610f7692919061187b565b6040516020818303038152906040529392505050565b6001600160a01b038216610fe25760405162461bcd60e51b815260206004820181905260248201527f4552433732313a206d696e7420746f20746865207a65726f2061646472657373604482015260640161054c565b6000818152600260205260409020546001600160a01b0316156110475760405162461bcd60e51b815260206004820152601c60248201527f4552433732313a20746f6b656e20616c7265616479206d696e74656400000000604482015260640161054c565b6000818152600260205260409020546001600160a01b0316156110ac5760405162461bcd60e51b815260206004820152601c60248201527f4552433732313a20746f6b656e20616c7265616479206d696e74656400000000604482015260640161054c565b6001600160a01b038216600081815260036020908152604080832080546001019055848352600290915280822080546001600160a01b0319168417905551839291907fddf252ad1be2c89b69c2b068fc378daa952ba7f163c4a11628f55a4df523b3ef908290a45050565b6000828152600260205260409020546001600160a01b03166111925760405162461bcd60e51b815260206004820152602e60248201527f45524337323155524953746f726167653a2055524920736574206f66206e6f6e60448201526d32bc34b9ba32b73a103a37b5b2b760911b606482015260840161054c565b600082815260066020908152604090912082516105ed92840190611424565b60006001600160a01b0384163b156112a457604051630a85bd0160e11b81526001600160a01b0385169063150b7a02906111f5903390899088908890600401611977565b6020604051808303816000875af1925050508015611230575060408051601f3d908101601f1916820190925261122d918101906119b4565b60015b61128a573d80801561125e576040519150601f19603f3d011682016040523d82523d6000602084013e611263565b606091505b5080516112825760405162461bcd60e51b815260040161054c90611925565b805181602001fd5b6001600160e01b031916630a85bd0160e11b149050610897565b506001949350505050565b606060006112bc8361134c565b600101905060008167ffffffffffffffff8111156112dc576112dc611656565b6040519080825280601f01601f191660200182016040528015611306576020820181803683370190505b5090508181016020015b600019016f181899199a1a9b1b9c1cb0b131b232b360811b600a86061a8153600a850494508461133f57611344565b611310565b509392505050565b60008072184f03e93ff9f4daa797ed6e38ed64bf6a1f0160401b831061138b5772184f03e93ff9f4daa797ed6e38ed64bf6a1f0160401b830492506040015b6d04ee2d6d415b85acef810000000083106113b7576d04ee2d6d415b85acef8100000000830492506020015b662386f26fc1000083106113d557662386f26fc10000830492506010015b6305f5e10083106113ed576305f5e100830492506008015b612710831061140157612710830492506004015b60648310611413576064830492506002015b600a83106104185760010192915050565b828054611430906117f3565b90600052602060002090601f0160209004810192826114525760008555611498565b82601f1061146b57805160ff1916838001178555611498565b82800160010185558215611498579182015b8281111561149857825182559160200191906001019061147d565b506114a49291506114a8565b5090565b5b808211156114a457600081556001016114a9565b6001600160e01b03198116811461098c57600080fd5b6000602082840312156114e557600080fd5b8135610a3f816114bd565b60005b8381101561150b5781810151838201526020016114f3565b838111156107885750506000910152565b600081518084526115348160208601602086016114f0565b601f01601f19169290920160200192915050565b602081526000610a3f602083018461151c565b60006020828403121561156d57600080fd5b5035919050565b80356001600160a01b038116811461158b57600080fd5b919050565b600080604083850312156115a357600080fd5b6115ac83611574565b946020939093013593505050565b6000806000606084860312156115cf57600080fd5b6115d884611574565b92506115e660208501611574565b9150604084013590509250925092565b60006020828403121561160857600080fd5b610a3f82611574565b801515811461098c57600080fd5b6000806040838503121561163257600080fd5b61163b83611574565b9150602083013561164b81611611565b809150509250929050565b634e487b7160e01b600052604160045260246000fd5b600067ffffffffffffffff8084111561168757611687611656565b604051601f8501601f19908116603f011681019082821181831017156116af576116af611656565b816040528093508581528686860111156116c857600080fd5b858560208301376000602087830101525050509392505050565b600080600080608085870312156116f857600080fd5b61170185611574565b935061170f60208601611574565b925060408501359150606085013567ffffffffffffffff81111561173257600080fd5b8501601f8101871361174357600080fd5b6117528782356020840161166c565b91505092959194509250565b6000806040838503121561177157600080fd5b61177a83611574565b915061178860208401611574565b90509250929050565b600080604083850312156117a457600080fd5b6117ad83611574565b9150602083013567ffffffffffffffff8111156117c957600080fd5b8301601f810185136117da57600080fd5b6117e98582356020840161166c565b9150509250929050565b600181811c9082168061180757607f821691505b6020821081141561182857634e487b7160e01b600052602260045260246000fd5b50919050565b6020808252602d908201527f4552433732313a2063616c6c6572206973206e6f7420746f6b656e206f776e6560408201526c1c881bdc88185c1c1c9bdd9959609a1b606082015260800190565b6000835161188d8184602088016114f0565b8351908301906118a18183602088016114f0565b01949350505050565b6000602082840312156118bc57600080fd5b5051919050565b6000602082840312156118d557600080fd5b8151610a3f81611611565b60208082526025908201527f4552433732313a207472616e736665722066726f6d20696e636f72726563742060408201526437bbb732b960d91b606082015260800190565b60208082526032908201527f4552433732313a207472616e7366657220746f206e6f6e20455243373231526560408201527131b2b4bb32b91034b6b83632b6b2b73a32b960711b606082015260800190565b6001600160a01b03858116825284166020820152604081018390526080606082018190526000906119aa9083018461151c565b9695505050505050565b6000602082840312156119c657600080fd5b8151610a3f816114bd56fea264697066735822122080019f3e7f77961b761cefd32432c80e2151bda8eb322911fe30e87dfb2525dd64736f6c634300080c0033",
  "linkReferences": {},
  "deployedLinkReferences": {}
}